:01002000E9F6
:05002800220D20FCC9BF
:070030001A22130D20FAC98A
:08004000F5E521A5C0C3800015
:20008000C5D52AB6280BE53A6E67E7E12318F3E804D1C1E1F041E60220FAF1D921A3C034B5
:2000A00020022334CD80FF3E01E091C9F041E60220FA3EC0C384FFAF012F0021A0C0CD7DE1
:0C00C000313EC0E09267AF6F0EA0EFC9A8
:02010000185590
:20010400CEED6666CC0D000B03730083000C000D0008111F8889000EDCCC6EE6DDDDD999DF
:16012400BBBB67636E0EECCCDDDC999FBBB9333E5469746C650079
:20014400000000000000000001000000FAA1C047FAA0C0F357583100E0D5CDE131CDB700B3
:20016400D17AEAA0C0FE112007AFCB3B17EAA1C0AFE042E043E041E04A3E07E04B11C80110
:200184002180FF0E0CF7CD80FF019C00CDC3313EE4E047E0483E1BE0493EC0E040AFE00F51
:2001A4003E01E0FFE090AF21A3C02277E026CD5C3BFBCDC713760018FCF3F802AFE00F7E42
:1001C400FBE0FFC9F092B7C8E0463E283D20FDC9D8
:0101E000C955
:0D3B5C0001D40021883A11CFC0CD8631C9B7
:20317D005F78B1C8730B545D1378B1C8CB38CB1930032A1213040C18062A12132A12130D6D
:20319D0020F70520F4C921A5C02A5F5623B2C87BB920F67AB820F2545D1B1B2A1247132AE2
:2031BD001213B0C818F521A5C02AB628032318F9783271C9F040E680C8AFE0917600F0912A
:2031DD00B728F9C9F040E680C8F044FE9230FAF044FE9138FAF040E67FE040C9C5F8042A87
:1231FD004F46CDA331C1C9C5F8042A4F46CDC331C1C935
:20020000D55FF8063A2B96301C237E933017237ECDAF2DF8057E1E00814F7B8847E1E5091E
:200220004D440A1801AF3333E1E803E9E8F2F80C7323722B2B77F800AF220E007922AF5F0D
:20024000223600F8137E3D3E012801AFF80477F8137ED6023E012801AFF80577F8137ED6AB
:20026000033E012801AFF80677F81146783DF80722783C77F8137EB72821F81246783DF819
:200280000922783C77F8047EB7C21103237EB7C28403237EB7C2F203C36204F80A36015699
:2002A000F8123A92C5D5F5333A575ED5F8122A5E2356CD0002D1C15FB7280B3D2808F80ABE
:2002C0007EF80077180914F80A723E049230D1F8127EF8009647C5D5C533F80C7EF533F822
:2002E000167EF533F8122A5E2356CD0002D1C1F80277C5D5C533F80D7EF533F8167EF53374
:20030000F8122A5E2356CD0002D1C1F80377C36204060150F8112A82C5D566E533F533F892
:20032000167EF533F8122A5E2356CD0002D1C15FB728083D2805F80070180714423E049234
:2003400030D2F8117EF8008647C5D5F80D7EF533C533F8167EF533F8122A5E2356CD000284
:20036000D1C1F80277C5D5F80E7EF533C533F8167EF533F8122A5E2356CD0002D1C1F80321
:2003800077C36204060150F8123A82C5D5F5333A575ED5F8122A5E2356CD0002D1C15FB798
:2003A00028083D2805F80070180714423E049230D6F8127EF8008647C5D5C533F80D7EF595
:2003C00033F8167EF533F8122A5E2356CD0002D1C1F80277C5D5C533F80C7EF533F8167E91
:2003E000F533F8122A5E2356CD0002D1C1F803771870060150F8112A92C5D566E533F53313
:20040000F8167EF533F8122A5E2356CD0002D1C15FB728083D2805F80070180714423E04ED
:200420009230D2F8117EF8009647C5D5F80E7EF533C533F8167EF533F8122A5E2356CD0002
:2004400002D1C1F80277C5D5F80D7EF533C533F8167EF533F8122A5E2356CD0002D1C1F842
:2004600003777BD6032006F8137EB728217BD6042006F8047EB720167BD6052006F8057E26
:20048000B7200B7BD606200AF8067EB728041E0118021E00F8027EB728067E3D28020E01F2
:2004A000F8037EB728087E3D2804F8013601F8007E3D2813F8007ED602CA8705F8007ED6E7
:2004C00003CA4706C30107CB43285ECB41281311572BD5210609E5210403E5CD8C32E80659
:2004E000181111B52AD5210609E5210403E5CD8C32E806F801CB462818118D2BD52106095B
:20050000E53E03F5333E0AF533CD8C32E806C3010711EB2AD5210609E53E03F5333E0AF523
:2005200033CD8C32E806C30107CB41281311212BD5210609E5210403E5CD8C32E806181107
:2005400011492AD5210609E5210403E5CD8C32E806F801CB46281811212BD5210609E53ED8
:2005600003F5333E0AF533CD8C32E806C30107117F2AD5210609E53E03F5333E0AF533CD52
:200580008C32E806C30107CB43285ECB41281311E72BD5210409E5210603E5CD8C32E80676
:2005A000181111772CD5210409E5210603E5CD8C32E806F801CB462818110B2CD521040959
:2005C000E53E03F5333E0AF533CD8C32E806C30107119B2CD5210409E53E03F5333E0AF5B3
:2005E00033CD8C32E806C30107CB41281311C32BD5210409E5210603E5CD8C32E8061811A5
:20060000112F2CD5210409E5210603E5CD8C32E806F801CB46281811C32BD5210409E53E8F
:2006200003F5333E0AF533CD8C32E806C3010711532CD5210409E53E03F5333E0AF533CDBD
:200640008C32E806C30107CB43285CCB41281311DA2CD5210309E5210703E5CD8C32E806C3
:20066000181111102DD5210309E5210703E5CD8C32E806F801CB462817012B2DC5210309FF
:20068000E53E03F5333E0AF533CD8C32E806187101612DC5210309E53E03F5333E0AF5335B
:2006A000CD8C32E806185ACB41281311BF2CD5210309E5210703E5CD8C32E806181111F56D
:2006C0002CD5210309E5210703E5CD8C32E806F801CB46281701BF2CC5210309E53E03F53C
:2006E000333E0AF533CD8C32E806181501462DC5210309E53E03F5333E0AF533CD8C32E81A
:2007000006E80EE1E804E9E8F1F80C7323722B2B77F800AF22AF22AF22AF22AF2277F813E6
:200720007EF80A77F8127EF80E77F8147EB72819F8147E3D286CF8147ED602CAE007F814C1
:200740007ED603CA1E08C35A08F8093600F8097EF80522079F77E5210200395D54E1F8056B
:200760002A666F19E57DF80977E17CF80822233A96F80E4605F533C533F8137EF533F80EED
:200780002A5E2356CD00024FF8072A666F71F809347EEE80D68438B5F8043E06223603C305
:2007A0005A080E00795F079F5721000039195D54F80A4605F80E7E81C5D5C533F533F817B5
:2007C0007EF533F8122A5E2356CD0002D1C1120C79EE80D68438CDF8043E03223604187A78
:2007E0000E00795F079F5721000039195D54F80A7E81F80E4604C5D5F533C533F8177EF565
:2008000033F8122A5E2356CD0002D1C1120C79EE80D68438CDF8043E04223605183C0E00D8
:20082000795F079F5721000039195D54F80A4604F80E7E91C5D5C533F533F8177EF533F8F7
:20084000122A5E2356CD0002D1C1120C79EE80D68438CDF8043E05223606F80E3603F80EDE
:200860007EF80A77F80E35F80A7EB7CA180AF80E7E4F079F472100003909E57DF80877E146
:200880007CF807322A5F2A571A77F80E7ED6023E012801AFF80977F80E7E3D3E012801AF4D
:2008A000F80A322B7EB7CA53097E3DCA5309F8097EB7282CF8047EF808962013115F29D562
:2008C000210109E5210603E5CD8C32E8061811114D29D5210109E5210603E5CD8C32E80663
:2008E000F80A7EB72831F8062A5F561A47F8047E902013116328D5210209E5210403E5CD91
:200900008C32E8061811115128D5210209E5210403E5CD8C32E806F80E7EB7C25E08F806AB
:200920002A5F561A47F8047E902014119427D5210309E5210103E5CD8C32E806C35E0811C9
:200940007927D5210309E5210103E5CD8C32E806C35E08F8087EB7C25E08F80E7E3C4F07F1
:200960009F4721000039095D541AF80877B7CA5E083DCA5E08F8097EB72830F8057EF8088F
:20098000962015D501A729C5210609E5210103E5CD8C32E806D11813D5017129C521060928
:2009A000E5210103E5CD8C32E806D1F80A7EB728301A4FF8057E912015D501C628C5210516
:2009C00009E5210103E5CD8C32E806D11813D5019928C5210509E5210103E5CD8C32E806B7
:2009E000D1F80E7EB7C25E081A47F8057E902014110028D5210309E5210103E5CD8C32E886
:200A000006C35E0811E527D5210309E5210103E5CD8C32E806C35E08E80FE1E804E9E8F171
:200A2000F80C7323722B2B77F800AF22AF22AF22AF22AF2277F8137EF80A77F8127EF80EC9
:200A400077F8147EB72819F8147E3D286CF8147ED602CAF70AF8147ED603CA350BC3710B69
:200A6000F8093600F8097EF80522079F77E5210200395D54E1F8052A666F19E57DF80977C2
:200A8000E17CF80822233A96F80E4604F533C533F8137EF533F80E2A5E2356CD00024FF8A6
:200AA000072A666F71F809347EEE80D68438B5F8043E04223603C3710B0E00795F079F579C
:200AC00021000039195D54F80A4604F80E7E81C5D5C533F533F8177EF533F8122A5E235627
:200AE000CD0002D1C1120C79EE80D68438CDF8043E05223604187A0E00795F079F57210000
:200B00000039195D54F80A7E81F80E4605C5D5F533C533F8177EF533F8122A5E2356CD0039
:200B200002D1C1120C79EE80D68438CDF8043E06223605183C0E00795F079F57210000398F
:200B4000195D54F80A4605F80E7E91C5D5C533F533F8177EF533F8122A5E2356CD0002D14F
:200B6000C1120C79EE80D68438CDF8043E03223606F80E3603F80E7EF80A77F80E35F80A3C
:200B80007EB7CA2F0DF80E7E4F079F472100003909E57DF80877E17CF807322A5F2A571A6C
:200BA00077F80E7ED6023E012801AFF80977F80E7E3D3E012801AFF80A322B7EB7CA6A0C27
:200BC0007E3DCA6A0CF8097EB7282CF8047EF808962013116829D5210109E5210D03E5CDE3
:200BE0008C32E8061811115629D5210109E5210D03E5CD8C32E806F80A7EB72831F8062A64
:200C00005F561A47F8047E902013118728D5210209E5210E03E5CD8C32E806181111752874
:200C2000D5210209E5210E03E5CD8C32E806F80E7EB7C2750BF8062A5F561A47F8047E9079
:200C4000201411CA27D5210309E5211003E5CD8C32E806C3750B11AF27D5210309E52110A3
:200C600003E5CD8C32E806C3750BF8087EB7C2750BF80E7E3C4F079F4721000039095D5449
:200C80001AF80877B7CA750B3DCA750BF8097EB72830F8057EF808962015D501132AC5216E
:200CA0000609E5210D03E5CD8C32E806D11813D501DD29C5210609E5210D03E5CD8C32E876
:200CC00006D1F80A7EB728301A4FF8057E912015D501F328C5210509E5210E03E5CD8C3298
:200CE000E806D11813D5012029C5210509E5210E03E5CD8C32E806D1F80E7EB7C2750B1A1A
:200D000047F8057E902014113628D5210309E5211003E5CD8C32E806C3750B111B28D521D8
:150D20000309E5211003E5CD8C32E806C3750BE80FE1E804E94B
:200D3500E8FBF8037323722B2B77110714D521004BE5CD1432E80411D925D5210019E5CDCA
:200D55001C32E804060078F802963036C55E78CDAF2DF802792270C10E0079F80796301F5B
:200D7500591600E1E5195D54F8032A666F195D541A3D200821CFC07121D0C0700C18DB04D7
:200D950018C4F040F601E040E805E133E94A4A4A4A4A4A4A4A4A4A4A4A4A4A4A4A4A4A4AB3
:200DB5004A4A4A4A4A4A4A4A4A4A4A4A4A4A4A4A4A4A4A4A4A4A4A4A4A4A4A4A4A4A4A4ADE
:200DD5004A4A4A4A4A4A4A4A4A000000000000000000000000000000000000000000000064
:200DF5000000000000000000000000000000000000000000000000000000000000000000DE
:200E15000000000000000000000000000000000000000000000000000000000000000000BD
:200E350000000000000000000000000000000000000000000000000000000000000000009D
:200E550000000000000000000000000000000000000000000000000000000000000000007D
:200E750000000000000000000000000000000000000000000000000000000000000000005D
:200E950000000000000000000000000000000000000000000000000000000000000000003D
:200EB500000000000000060006000000000000000000000000050005000000000000000007
:200ED5000000000004000400000000000000000000000003000300000000000000000000EF
:200EF5000000020002030405060000000000000200000100000000000000000000000000C4
:200F15000200020304050600000000000000000000000000000000000000000000000002A4
:200F350000000000000000000000000000000200000000000000000000000000000000009A
:200F550000000000000000000000000000000000000000000000000000000000000000007C
:200F75000000000000000000000000000000000000004FD521A20DE521140DE5AF0FF5CDDC
:200F95008C32E806D1C5D5FA9AC167FAD0C06FE5FACFC0F533F8097EF53379CD0707D1C14D
:200FB500C5D5FA9AC167FAD0C06FE5FACFC0F533F8097EF53379CD1E0AD1C1FA9AC167FADA
:200FD500D0C06FE5FACFC0F533F8057EF53379CD2C02E133E9E133E92100C03E142236507B
:200FF5002104C03E1C2236502108C03E1C223658210CC03E142236582110C03E1422364038
:201015002114C03E14223668C92103C036002107C03600210BC03600210FC03600FA9AC116
:20103500B72817FA9AC13D2831FA9AC1D602284AFA9AC1D6032863C3CD102102C036012187
:2010550006C03602210AC03601210EC03602210BC03660210FC03660185E2102C036032179
:2010750006C03603210AC03604210EC03604210BC036402107C03640183E2102C0360621B8
:2010950006C03605210AC03606210EC036052107C03660210BC03660181E2102C036072172
:2010B50006C03608210AC03608210EC03607210BC03620210FC03620FA9AC1B72815FA9A5D
:2010D500C13D281AFA9AC1D602281EFA9AC1D6032822C92112C0360C2116C0360AC921129F
:2010F500C036092116C0360BC92112C0360A2116C0360CC92112C0360B2116C03609C9FA79
:201115009BC1EA9CC1CD5C32219BC177CB4E2820FA9CC1CB4F2019219AC1357E3C2005210C
:201135009AC136033E0FF5333E0F11A60ECD870FFA9BC10F3020FA9CC10F381A219AC134FF
:201155007ED6042005219AC136003E0FF5333E0F11A60ECD870FFA9BC1CB57CAA112FA9CD6
:20117500C1CB57C2A11221D0C05EFA9AC1B7281A21CFC04EFA9AC13D2852FA9AC1FE02CA7C
:201195002312D603CA6312C3A1124305C533FACFC0672E0FE53E0F11A60ECD0002B728194C
:2011B500FAD0C03DF533FACFC0672E0FE53E0F11A60ECD00023DC2A11221D0C0353E0FF55E
:2011D500333E0F11A60ECD870FC3A1120CFAD0C0F533612E0FE53E0F11A60ECD0002B728DB
:2011F5001AFACFC03C21D0C066E533672E0FE53E0F11A60ECD00023DC2A11221CFC0343E8E
:201215000FF5333E0F11A60ECD870FC3A1124304C533FACFC0672E0FE53E0F11A60ECD0067
:2012350002B72818FAD0C03CF533FACFC0672E0FE53E0F11A60ECD00023D205021D0C0342D
:201255003E0FF5333E0F11A60ECD870F183E0DFAD0C0F533612E0FE53E0F11A60ECD000216
:20127500B72819FACFC03D21D0C066E533672E0FE53E0F11A60ECD00023D201021CFC035B0
:201295003E0FF5333E0F11A60ECD870FFA9BC1CB5FC8FA9CC1CB5FC021D0C05EFA9AC1B7AB
:2012B500281821CFC04EFA9AC13D284CFA9AC1FE02CA4B13D603CA8913C94304C533FACF48
:2012D500C0672E0FE53E0F11A60ECD0002B72817FAD0C03CF533FACFC0672E0FE53E0F117B
:2012F500A60ECD00023DC021D0C0343E0FF5333E0F11A60ECD870FC90DFAD0C0F533612E73
:201315000FE53E0F11A60ECD0002B72818FACFC03D21D0C066E533672E0FE53E0F11A60E5C
:20133500CD00023DC021CFC0353E0FF5333E0F11A60ECD870FC94305C533FACFC0672E0FC7
:20135500E53E0F11A60ECD0002B72817FAD0C03DF533FACFC0672E0FE53E0F11A60ECD00DC
:20137500023DC021D0C0353E0FF5333E0F11A60ECD870FC90CFAD0C0F533612E0FE53E0F32
:2013950011A60ECD0002B72818FACFC03C21D0C066E533672E0FE53E0F11A60ECD00023D12
:2013B500C021CFC0343E0FF5333E0F11A60ECD870FC93E0FF5333E0F11A60ECD350DCDED71
:2013D5000F3E0FF5333E0F11A60ECD870F11D925D521001AE5CD1C32E804219AC14E210207
:1213F500C0713E2FCD171DF040F602E040CDD13118FB1D
:203A880000000100000000000000000000000000000000000000000000000000000000001D
:203AA8000000000000000000000000000000000000000000000000000000000000000000FE
:203AC8000000000000000000000000000000000000000000000000000000000000000000DE
:203AE8000000000000000000000000000000000000000000000000000000000000000000BE
:203B080000000000000000000000000000000000000000000000000000000000000000009D
:203B280000000000000000000000000000000000000000000000000000000000000000007D
:0E3B480000000000000000000000000000006F
:2014070000000000000000000000000000000000C0C030300C0C03030000000000000000C7
:201427000000000000000000C0C030300C0C0303000000000000000003030C0C3030C0C0A9
:2014470003030C0C3030C0C00000000000000000C0C030300C0C0303010101010101010181
:2014670003030C0C3030C0C080808080808080800101010101010101010101010101010157
:20148700C0C0B0B08C8C838380838083808380830000000000000000C0C030F00CCC03C3FD
:2014A70080808080808080808080808080808080000000000000000003030C0F3033C0C31E
:2014C70003030D0D3131C1C101C101C101C101C180838083808380838083808380838083E1
:2014E70001C101C101C101C101C101C101C101C10C0C0B0B08090809080908090809080941
:2015070001010101C1C131B111911191119111918080808083838C8D888988898889888971
:201527003030D0D0109010901090109010901090080908090809080908090809080908095C
:201547001191119111911191119111911191119188898889888988898889888988898889EC
:2015670010901090109010901090109010901090010101010101010103030C0C3030C0C05E
:20158700119111911191119113931C9C30B0C0C08889888988898889C8C938390C0D030399
:2015A7008080808080808080C0C030300C0C03030B0B0C0C3030C0C0000000000000000018
:2015C700D0D030300C0C03030000000000000000808380838083808383838C8CB0B0C0C0DC
:2015E70003C30CCC30F0C0C00000000000000000C0C330330C0F030300000000000000009F
:2016070001C101C101C101C1C1C131310D0D03030000000000000000FFFF000000000000B9
:201627000000000000000000FFFF0101010101010000000000000000FFFF808080808080A1
:20164700FFFF01C101C101C101C101C101C101C1FFFF808380838083808380838083808324
:20166700000000000000FFFF0000000000000000010101010101FFFF000000000000000061
:2016870001C101C101C1FFFF0000000000000000808080808080FFFF000000000000000001
:2016A700808380838083FFFF000000000000000000000000FFFF808380838083808380830F
:2016C70000000000FFFF01C101C101C101C101C10101010121213939253D253D253D253DFB
:2016E7008080808084849C9CA4BCA4BCA4BCA4BC253D253D253D253D253D253D253D253D13
:20170700A4BCA4BCA4BCA4BCA4BCA4BCA4BCA4BC273F2C3C3030C0C0000000000000000014
:20172700E4FC343C0C0C03030000000000000000FFFF000000000000000000000000000036
:20174700FFFF0101010101010101010101010101FFFF0000000000000000FFFF8199819946
:20176700FFFF80808080808080808080808080808199819981998199819981998199819994
:201787000000000000000000000000000000FFFF0101010101010101010101010101FFFF38
:2017A7008199819981998199819981998199FFFF8080808080808080808080808080FFFF70
:2017C7000000000000000000FFFF0007000700070000000000000000FFFF00E000E000E051
:2017E7000007000700070007000700070007000700E000E000E000E000E000E000E000E0AA
:20180700000700070007FFFF000000000000000000E000E000E0FFFF000000000000000010
:201827000000000000000000FFFF8083808380830000000000000000FFFF01C101C101C156
:201847000000FFFF8083808380838083808380830000FFFF01C101C101C101C101C101C1E7
:201867001011101110111011101110111011FFFF0888088808880888088808880888FFFF8E
:2018870000000000000000001F1F1011101110110000000000000000F8F808880888088800
:2018A700FFFFFFFFFFFFFFFFFFFFFFFFFFFFFFFF0000000000000000000000000000000031
:2018C700C0C030300C0C030300000000000000000000000000000000C0C030300C0C030305
:2018E700000000000000000003030C0C3030C0C003030C0C3030C0C00000000000000000E5
:20190700C0C030300C0C0303010101010101010103030C0C3030C0C08080808080808080BC
:2019270001010101010101010101010101010101C0C0B0B08C8C8383808380838083808386
:201947000000000000000000C0C070F00CCC03C38080808080808080808080808080808002
:20196700000000000000000003030C0F3033C0C303030D0D3131C1C101C101C101C101C14D
:201987008083808380838083808380838083808301C101C101C101C101C101C101C101C118
:2019A700010101010101010103030C0C3030C0C08080808080808080C0C030300C0C03031C
:2019C700808380838083808383838C8CB0B0C0C003C30CCC30F0C0C00000000000000000B8
:2019E700C0C330330C0F0303000000000000000001C101C101C101C1C1C131310D0D0303CD
:201A0700FFFF0000000000000000000000000000FFFF0101010101010101010101010101B5
:201A2700FFFF80808080808080808080808080800000000000000000FFFF01C101C101C15D
:201A47000000000000000000FFFF8083808380830000000000000000000000000000FFFF7A
:201A67000101010101010101010101010101FFFF01C101C101C101C101C101C101C1FFFF07
:201A87008080808080808080808080808080FFFF8083808380838083808380838083FFFF2E
:201AA70000000000000000000C0C0B0B08090809010101010101010101010101C1C131B15F
:201AC70080808080808080808080808083838C8D00000000000000003030D0D010901090A0
:201AE700080908090809080908090809080908091191119111911191119111911191119147
:201B0700888988898889888988898889888988891090109010901090109010901090109036
:201B270008090809080908090B0B0C0C3030C0C013931C9C30B0C0C000000000000000008E
:201B4700C8C938390C0D030300000000000000001090109010901090D0D030300C0C0303BF
:201B6700FFFF00000000000000000000FFFF8083FFFF00000000000000000000FFFF01C1A1
:201B8700C0C030300C0C0303010101012121393903030C0C3030C0C08080808084849C9C4A
:201BA700253D253D253D253D253D253D253D253DA4BCA4BCA4BCA4BCA4BCA4BCA4BCA4BC0E
:201BC700253D253D253D253D273F2C3C3030C0C0A4BCA4BCA4BCA4BCE4FC343C0C0C0303DA
:201BE700FFFF00000000000000000000FFFF819981998199819981998199819981998199F8
:201C07008199819981998199819981998199FFFF0000000000000000FFFF0000000000000B
:201C2700000000000000FFFF00000000000000000000000000000000FFFF808080808080A1
:201C47000000000000000000FFFF0007000700070000000000000000FFFF00E000E000E0CC
:201C67000000000000000000FFFF0101010101010007000700070007000700070007000721
:201C870000E000E000E000E000E000E000E000E0808080808080FFFF00000000000000003F
:201CA700000700070007FFFF000000000000000000E000E000E0FFFF00000000000000006C
:201CC700010101010101FFFF0000000000000000808380838083FFFF0000000000000000F2
:201CE70001C101C101C1FFFF0000000000000000FFFF0000000000000000FFFF8083808397
:201D0700FFFF0000000000000000FFFF01C101C1E8EC4FF800AF22AF22AF22AF22AF22AF5D
:201D270022AF22774658160021000039195D54692600292929D511D91D19D17E120478D6A8
:201D47000838E2F8073A4F06002A23223600F8057EF80A223600F8047EF80C223600F80381
:201D67007EF80E223600F8027EF810223600F8017EF812223600F8005E1600C5F80A2A4F23
:201D87002A47C52A4F2A47C52A4F2A47C52A4F2A47C52A4F2A47C52A4F46C5D511B51DD539
:201DA700CDC12DE812210000394D44E814C9256420256420256420256420256420256420C1
:201DC70025642025640A004FAFB930033C18FAE133E900000000000000000000000000008B
:201DE7000000000000000000000000000000000000000000000000000000000000000000DC
:201E07000000000000000000000000000000000000000000000000000000000000000000BB
:201E270000000000000000000000000000000000000000000000000000000000000000009B
:201E470000000000000000000000000000000000000000000000000000000000000000007B
:201E670000000000000000000000000000000000000000000000000000000000000000005B
:201E870000000000000000000000000000000000000000000000000000000000000000003B
:201EA70000000000000000000000000000000000000000000000000000000000000000001B
:201EC7000000000000000000000000000000000000000000000000000000183C3C1818003B
:201EE7001800363600000000000036367F367F3636000C3E031E301F0C00006333180C6665
:201F070063001C361C6E3B336E000606030000000000180C0606060C1800060C1818180CD0
:201F2700060000663CFF3C660000000C0C3F0C0C000000000000000C0C060000003F000085
:201F4700000000000000000C0C006030180C060301003E63737B6F673E000C0E0C0C0C0CB7
:201F67003F001E33301C06333F001E33301C30331E00383C36337F3078003F031F303033F0
:201F87001E001C06031F33331E003F3330180C0C0C001E33331E33331E001E33333E301846
:201FA7000E00000C0C00000C0C00000C0C00000C0C06180C0603060C180000003F00003FD1
:201FC7000000060C1830180C06001E3330180C000C003E637B7B7B031E000C1E33333F3390
:201FE70033003F66663E66663F003C66030303663C001F36666666361F007F46161E1646D5
:202007007F007F46161E16060F003C66030373667C003333333F333333001E0C0C0C0C0C4E
:202027001E007830303033331E006766361E366667000F06060646667F0063777F7F6B63D9
:20204700630063676F7B736363001C36636363361C003F66663E06060F001E3333333B1EE8
:2020670038003F66663E366667001E33070E38331E003F2D0C0C0C0C1E00333333333333FA
:202087003F0033333333331E0C006363636B7F7763006363361C1C3663003333331E0C0C48
:2020A7001E007F6331184C667F001E06060606061E0003060C18306040001E1818181818B2
:2020C7001E00081C36630000000000000000000000FF0C0C18000000000000001E303E3330
:2020E7006E000706063E66663B0000001E3303331E003830303E33336E0000001E333F0331
:202107001E001C36060F06060F0000006E33333E301F0706366E666667000C000E0C0C0C95
:202127001E00300030303033331E070666361E3667000E0C0C0C0C0C1E000000337F7F6BCE
:20214700630000001F333333330000001E3333331E0000003B66663E060F00006E33333EE9
:20216700307800003B6E66060F0000003E031E301F00080C3E0C0C2C180000003333333364
:202187006E0000003333331E0C000000636B7F7F3600000063361C36630000003333333EE0
:2021A700301F00003F190C263F00380C0C070C0C38001818180018181800070C0C380C0C5A
:2021C70007006E3B0000000000000000000000000000C3C3E3E3F3F3FBFBDFDFCFCFC7C736
:2021E700C3C3FFFFFFFFC0C0F8F8F8F8C0C0FFFFFFFF3E3E7E7E6060303018180C0C7E7E9E
:202207007C7CDBDBDBDBDBDBDBDBDBDBDBDBFFFF3C3C0101020304070407020301011F1FA3
:20222700101F080F080F0407040702030203010101018080C040E02060A040C08080F8F826
:20224700F808F010F010E020E020C040C04080808080010102030407040702031D1D131FE9
:20226700080F080F04070407040702030203010101018080C040E02060A040C08080C0C07A
:20228700F838F010F010E020E020C040C04080808080010102030407040702030D0D0B0FB1
:2022A7000407040704070203020302030203010101018080C040E02060A040C080800000DE
:2022C700C0C0E020E020C040C040C040C0408080808001010203040704070203070705073B
:2022E7000203020302030203020302030101010101018080C040E02060A040C080800000B3
:20230700C0C0C040C040C040C0408080808080808080010102030407040702030101000012
:202327000303030203020302030201010101010101018080C040E02060A040C0E0E0A0E034
:2023470040C040C040C040C040C040C0808080808080010102030407040702030101000052
:202367000303070407040302030203020302010101018080C040E02060A040C0B0B0D0F002
:2023870020E020E020E040C040C040C040C08080808001010203040704070203010103030C
:2023A7001F1C0F080F080704070403020302010101018080C040E02060A040C0B8B8C8F859
:2023C70010F010F020E020E020E040C040C0808080800101020304070407020301011F1F94
:2023E7001F100F080F080704070403020302010101018080C040E02060A040C08080F8F865
:2024070008F810F010F020E020E040C040C080808080010102030407040702031D1D1F1327
:202427000F080F0807040704070403020302010101018080C040E02060A040C08080C0C0B8
:2024470038F810F010F020E020E040C040C080808080010102030407040702030D0D0F0BEF
:202467000704070407040302030203020302010101018080C040E02060A040C0808000001C
:20248700C0C020E020E040C040C040C040C080808080010102030407040702030707070579
:2024A7000302030203020302030203020101010101018080C040E02060A040C080800000F1
:2024C700C0C040C040C040C040C08080808080808080010102030407040702030101000051
:2024E7000303020302030203020301010101010101018080C040E02060A040C0E0E0E0A073
:20250700C040C040C040C040C040C040808080808080010102030407040702030101000090
:202527000303040704070203020302030203010101018080C040E02060A040C0B0B0F0D040
:20254700E020E020E020C040C040C040C0408080808001010203040704070203010103034A
:202567001C1F080F080F0407040702030203010101018080C040E02060A040C0B8B8F8C897
:20258700F010F010E020E020E020C040C040808080800101020304070407020301011F1FD2
:2025A700101F080F080F0407040702030203010101018080C040E02060A040C08080F8F8A3
:2025C700F808F010F010E020E020C040C040808080800000000000000000000000000000F4
:2025E7000000FC007800300038003C003E003700330031003000300030003000300078007B
:20260700FC001F001F001C001800180018001C001F00FE00FE0000000000000000000000DE
:20262700FC00FC00F80000000000000000000000E00007000F0018003000300030001800ED
:202647000F0000004000400060006000610061006100630063006300360036003E001C0012
:20266700000042004200620052004A004600420042007E00400040007C00400040004000CD
:202687007E003C00400040002000180004000400780082008200820092005400540054002D
:2026A70038000003030F0F1F1F3F3F7F3F7F7FFF7FFF0003020D0D131D233B473B47778F46
:2026C700778F0003030C0F101F203F403F407F807F800003020F0D1E1D3E3B7C3B7C77F80A
:2026E70077F800001F1F3F207F40FFFFFF80FF80FFFF0000FFFFFF00FF00FFFFFF00FF0016
:20270700FFFF0000FFFFFF03FF05FFF9FE12FC14F8F8000000000000000000003F3F407F6B
:2027270080FF00000000000000000000FFFF00FF00FF00000000000000000000FFFF03FF17
:2027470007FDFFFFFF80FF80FF80FF80FF80FF80FFFFFFFFFF00FF00FF00FF00FF00FF0080
:20276700FFFFFFF9FF11FF11FF11FE12FC14F818F0F0010200000005000007000007000006
:20278700070000070000070000170304000102000809050D0E070D0E070D0E070D0E070D51
:2027A7000E070D0E171D1E000003040600000A00000A00000A00000A00000A00001A000037
:2027C700000102000304060B0C0A0D0E0A0D0E0A0D0E0A0D0E0A0D0E1A0D0E001F2000009E
:2027E700002121220000070000070000070000070000072626270000000000002121220074
:2028070000072400070E00070E00070E00072826270000000000002321210A00000A000052
:202827000A00000A00000A00002926260000000000002321210A00000A00250A000D0A003F
:202847000D0A000D29262A000000000002000005000700070007001704000000000002009B
:2028670000050F101314131413181B0000000000000306000A000A000A001A000001000057
:202887000000000306001112151615161916001C00000000000000000000000021212121E0
:2028A70022000000000700000000070000000007262626262700000000000000000000001B
:2028C7000000000000000000002121212122002B2C0007000D0E0007000D0E0007262A2831
:2028E7002627000000000000000000000000000000000000000023212121210A002B2C007C
:202907000A000D0E000A000D0E0029262A282600000000000000000000000000000000009F
:2029270000000023212121210A000000000A000000000A000000002926262626000000000A
:202947000000000000000000020707070400000000030A0A0A0100000000022D2F2F310075
:20296700000000032E303032000000000000000000000000000000000000000033333333C1
:20298700333400000000000738383838383900000000000000000000000000000000000071
:2029A70000000000000000000000000000000000000033333333353400000000370738382D
:2029C70038383A39000000000000000000000000000000000000000000000000000000000D
:2029E70000000000000000003633333333330A00000000003B38383838380000000000003E
:202A0700000000000000000000000000000000000000000000000000000000000000363544
:202A2700333333330A37000000003B3A38383838000000000000000000000000000000002D
:202A470000000000000000002321212121210A00000000000A00000000000A000000000089
:202A67000A00000000000A0000000000292626262626000000000000000000000000212112
:202A870021212122000000000007000000000007000000000007000000000007000000008E
:202AA70000072626262626270000000000000000000000002321212121210A000000233CF2
:202AC7000A0000000A3E0A0000000A3E0A0000000A3E0A0000000A3E2926262629400000A3
:202AE700000000000000000000002121212121223D22000000073F07000000073F0700000F
:202B070000073F07000000073F07000000074127262626270000000000000000000000000C
:202B27002121212121210000000000000000000000000000000000000000000000000000C8
:202B47000000000026262626262600000000000000000000000021212121212100000000C4
:202B6700233C000000000A3E000000000A3E000000000A3E000000000A3E262626262940CE
:202B87000000000000000000000000002121212121213D22000000003F07000000003F077D
:202BA700000000003F07000000003F07000000004127262626260000000000000000000082
:202BC7000000000021212121000000000000000000000000262626260000000000000000D2
:202BE700000000000000000021212121000000420000000D0000000D2626262A0000000052
:202C070000000000000000000000000021212121430000000E0000000E0000002826262630
:202C270000000000000000000000000000000000232121210A0000000A0000000A000000E9
:202C470029262626000000000000000000000000000000002121212200000007000000073F
:202C6700000000072626262700000000000000000000000000000000232121210A000042DB
:202C87000A00000D0A00000D2926262A0000000000000000000000000000000021212122DB
:202CA700430000070E0000070E0000072826262700000000000000000000000000000000FE
:202CC700003333330000003838380000000000000000000000000000000000003333330013
:202CE70000483838460000000000000000000000000000000000003633330A00003B38387E
:202D07000000000000000000000000000000000000003633330A00483B3846000000000005
:202D27000000000000000000000000000033333349000047383800000000000000000000F3
:202D4700000000000000000033333400000738383900000000000000000000000000000022
:152D6700000000333334490007473839000000000000000000B5
:20320F00F80656180A1690F040E61028021680C5F8042A5F2A4F2A666FCB337BE60F825794
:1D322F007BE6F05FCB5A2802CBA20610F041E60220FA2A12130520F40D20E9C1C9C5
:202D7C004F18024B5F7B179F57AF182A4F179F477B179F5778BA38067B594F7A5047B7CAB2
:202D9C00B22D2E00061029CB11173001190520F64D44C94FAF576F0608792917300119053F
:052DBC0020F84D44C9A0
:20324C00F5D5167FCD5C32B720F81520F7D1F1C93E20E000F000F000E60F5F3E10E000F092
:20326C0000F000F000F000F000F000E60FCB37B32F5F3E30E0007BC957CD5C32A228FAC989
:152DC100F8045D5401A633D5110000D5F8062A5F56CD0D2EC90D
:14328C00C5F8042A575EF8093A473A4F3A666FCD3039C1C9B4
:0301E800C3CB3452
:023B560000006D
:2032A000217535CDA732C9CDE131E521B6C006067E23B6FE00280B23230520F4E121000084
:2032C0001824D1722B73FAB4C02B77E5CD2533FAA2C0E602C4EF3221B2C02A666F23FAB42B
:2032E000C086EAB4C0E1F040F681E6E7E040C921B2C02A666F2A5F2A577B0E80E603FE015F
:203300002807FE02280924180679856F8C9567E54BFAB1C05FD5CB512005CD14321803CD0B
:20332000273AE804C92AEAB1C02AEAB2C02AEAB3C0C9FE0A200EF5FAA2C0E6082005CD5A5B
:2033400034F1C9F1CD5833C36F34CD5833C36F34CD43343E00C35833F5FAB3C0B7200ACD32
:20336000D533AFEAB4C0CDA032F1C5D5E55F21B2C02A666F2AE603FE022805231600195E48
:20338000FAB1C0835FFA9EC16F26002929292929FA9DC14F06000901009809F041E6022094
:2033A000FA73E1D1C1C9C5F8047ECD3233C1C9C5F8047ECD5833C1C9C5F8047E23666FCD44
:2033C000A732E5D1C1C9C5F8047E23666FCD2533C1110000C9C5CDCB34AFEAB4C021B5C0A9
:2033E0000612220520FC3E03EA9FC1AFEAA0C1CDFB33C1C9AFEA9DC1EA9EC1D5E5210098B5
:203400001E201620F041E60220FA3600231520F41D20EFE1D1C9F8022AEA9DC17EEA9EC1A9
:20342000C9FAA2C0E6022005C5CDCB34C1FA9DC15FC9FAA2C0E6022005C5CDCB34C1FA9E35
:20344000C15FC9E5219DC1AFBE280335180A3613219EC1AFBE280135E1C9E5AFEA9DC121F5
:203460009EC13E11BE2803341803CD9D34E1C9E5219DC13E13BE28033418203600219EC15E
:203480003E11BE2803341813FAA2C0E6042809AFEA9EC1EA9DC11803CD9D34E1C9C5D5E5FC
:2034A0002100980120981E1F1620F041E60220FA0A22031520F41D20EF1620F041E6022001
:2034C000FA3E00221520F4E1D1C1C9F3F040E6802815CDE131010C3521A5C0CDA631011704
:1D34E0003521C7C0CDA631CDF434F040F681E6E7E040FBC9CDFB333E02EAA2C0C9B1
:033B580003000067
:2034FD00F8022AEA9FC12AEAA0C17EEAA1C1C9F040F610E0403E48E045C9F041E60220FA3C
:07351D00F040E6EFE040C9B9
:03004800C3243599
:20352400F5E5C5D521C7C0E52A666FB42815E721C9C02A666FB4280BE721CBC02A666FB4D9
:20354400C42000E1D1C1E1F041E60220FAF1D9C5F8044E2346CD5E35C1C921C7C0C3C6316E
:11356400C5F8044E2346CD6F35C1C921C7C0C3A631A1
:20357500056600000000000000000000000000006061000000000000000000000000626345
:203595006465000102030405060708090A0B0C0D0E0F101112131415161718191A1B1C1D9A
:2035B5001E1F202122232425262728292A2B2C2D2E2F303132333435363738393A3B3C3D46
:2035D5003E3F404142434445464748494A4B4C4D4E4F505152535455565758595A5B5C5D26
:2035F5005E5F00000000000000001818181818001800666644000000000000247E24247EF1
:203615002400143E553C1E553E1462660C183066460078CC61CECCCC78001818100000003E
:20363500000004081818181808042010181818181020005438FE385400000018187E181849
:20365500000000000000003030200000003C00000000000000000018180003060C183060AC
:20367500C0003C666E7666663C0018381818181818003C660E1C38707E007E0C183C064603
:203695003C000C1C2C4C7E0C0C007E607C0606463C001C20607C66663C007E060E1C1818BD
:2036B50018003C66663C66663C003C66663E060C3800001818000018180000181800181841
:2036D5001000060C1830180C060000003C00003C00006030180C183060003C46060C1818A9
:2036F50000183C666E6A6E603C003C66667E666666007C66667C66667C003C626060606235
:203715003C007C66666666667C007E60607C60607E007E60607C606060003C62606E666658
:203735003E006666667E6666660018181818181818000606060606463C00666C7870786C6E
:2037550066006060606060607C00FCD6D6D6D6C6C60062727A5E4E4642003C666666666696
:203775003C007C66667C606060003C66666666663C067C66667C666666003C62703C0E4604
:203795003C007E181818181818006666666666663C006666666666647800C6C6C6D6D6D67C
:2037B500FC006666663C666666006666663C181818007E0E1C3870607E001E1818181818DE
:2037D5001E00406030180C060200781818181818780010386C00000000000000000000009E
:2037F5007E0000C0C06000000000003C463E66663E00607C666666667C00003C62606062DC
:203815003C00063E666666663E00003C667E60623C001E307C3030303000003E6666663EE7
:20383500463C607C6666666666001800181818181800000818181818583060646870786C17
:2038550066001818181818180C0000FCD6D6D6D6C600007C666666666600003C66666666E9
:203875003C00007C6666667C6060003E666666663E06006C706060606000003C72381C4E47
:203895003C00183C181818180C000066666666663E00006666666664780000C6C6D6D6D659
:2038B500FC000066663C6666660000666666261E463C007E0E1C38707E000E181830181859
:2038D5000E0018181818181818187018180C181870000060F29E0C000000101028284444C5
:2038F50082FE000000FFFFFF00001C1C1C1C1C1C1C1C0000001F1F1F1C1C000000FCFCFCCD
:123915001C1C1C1C1C1F1F1F00001C1C1CFCFCFC00006F
:202DD600D5D1D51AB7281AC5F8065E2356D5F5336960CD873AE803C1F8003420E423341816
:202DF600E03333E1F1E93031323334353637383941424344454600E8E1F81D7B2272F81B1A
:202E1600792270F81D2A5F561A47B7CA3131D625C214312B3420022334F81D2A5F561AD69B
:202E36003020062B3420022334F81D2A5F561AC6CFD60930062B3420022334F81D2A5F56CA
:202E56001AF81077F8217EF81177F8227EF81277F8232A5F5621020019E57DF81577E17C1A
:202E7600F814322A5F562102007B955F7A9CF81632732A23322A2377F8107ED658CA45308E
:202E9600F8232A4F460359501BF8197B2272F8107ED663CAAD2FF8107ED664CA0930F8102B
:202EB6007ED668281BF8107ED673CAE530F8107ED675CACD2FF8107ED678CA4530C326318B
:202ED600F81D3420022334F81D2A5F561AFE58280EFE64CA772FFE752852D678C22631F862
:202EF60023792270F8192A5F561A4FCB37E60FC6FC5F3E00CE2D571AC5F8135E2356D5F502
:202F160033F8202A666FCD873AE803C179E60F4F060021FC2D097EF8115E2356D5F533F8AE
:202F36001E2A666FCD873AE803C32631F823792270F8192A5F561A4F1E003E0AF53321019C
:202F56000039E543C5CD8139E805F8212A5F56D5F81D2A4F46210200395D54CDD62DC3265A
:202F760031F823792270F8192A5F561A4F079F5F3E0AF53321010039E543C5CD9039E8054B
:202F9600F8212A5F56D5F81D2A4F46210200395D54CDD62DC32631F823792270F8192A5FC3
:202FB600561AF8215E2356D5F533F81E2A666FCD873AE803C32631F8137EF82377F8147E51
:202FD600F82477F8172A5F561A4F131A260AE53321010039E547C5CD8139E805F8212A5F1A
:202FF60056D5F81D2A4F46210200395D54CDD62DC32631F8137EF82377F8147EF82477F895
:20301600172A5F561A4F131A260AE53321010039E547C5CD9039E805F8212A5F56D5F81D15
:203036002A4F46210200395D54CDD62DC32631F8137EF82377F8147EF82477F8172A5F2ACA
:2030560023571A4F131A47707ECB37E60FC6FC5F3E00CE2D571AC5F8135E2356D5F533F8B7
:20307600202A666FCD873AE803C1F81A7EE60F5F160021FC2D197EC5F8135E2356D5F53362
:20309600F8202A666FCD873AE803C179CB37E60F0600E60F5F160021FC2D197EC5F8135EDA
:2030B6002356D5F533F8202A666FCD873AE803C179E60F4F060021FC2D097EF8115E2356BF
:2030D600D5F533F81E2A666FCD873AE8031841F8137EF82377F8147EF82477F8152A4F46F2
:2030F60059501AF81922131A77F8212A5F56D5F81D2A4F46F81B2A5F56CDD62D1812F8217A
:203116002A5F56D5C533F81E2A666FCD873AE803F81D34C2192E2334C3192EE81FE1E804D8
:20313600E93B3BF8052A4F4659501AF80022131A77D1D5F8047E126960233A5E57137B0240
:20315600037A023333C9F8025D544B42D521080039E5C5013731F80A2A5F56CD0D2EAFF59C
:0731760033CD3731E803C936
:013B5B000069
:20392700E5F040E6402809180CE5F040E6082005210098180321009CC5CB33CB037BE60342
:2039470084473EE0A3824FE1D1D5C5F041E60220FAFAA2C186022379E6E05F793CE61FB371
:203967004F1520E7C1D11DC8D578E6FC5F3E20814F8891E603B347C518D1C5F8042A5F2A84
:20398700572A4F46CDB339C1C9C5F8042A5F2A572A4F46CD9F39C1C97A8730101F2F577BAD
:2039A7002F5F133E2D0203CDB3391BC9E8FDF802AF323277C50608CB23CB127E8F27227E77
:2039C7008F27227E8F27322BCB23CB127E8F27227E8F27227E8F27322B0520DBC1C51130A8
:2039E70000F8043AE60FB7280583160102037ECB37E60F8228069283160102033AE60F820B
:203A070028069283160102037ECB37E60F822804928302037EE60F830203AF02D1E803C9D2
:203A27001690F040E61028021680C5F8042A5F2A4F2A666FCB337BE60F82577BE6F05FD565
:203A4700545DE1CB5C2802CBA40608C51A13D5E5219FC14E2366691E081F38035418015550
:203A6700CB3ACB19CB3ACB181D20EEE1F041E60220FA712C7023D1C10520D00D20C5C1C9FC
:013A8700E955
:00000001FF
