:01002000E9F6
:05002800220D20FCC9BF
:070030001A22130D20FAC98A
:08004000F5E521A5C0C3800015
:20008000C5D52AB6280BE53A6E67E7E12318F3E804D1C1E1F041E60220FAF1D921A3C034B5
:2000A00020022334CD80FF3E01E091C9F041E60220FA3EC0C384FFAF01110021A0C0CD512B
:0C00C0002F3EC0E09267AF6F0EA0EFC9AA
:02010000185590
:20010400CEED6666CC0D000B03730083000C000D0008111F8889000EDCCC6EE6DDDDD999DF
:16012400BBBB67636E0EECCCDDDC999FBBB9333E5469746C650079
:20014400000000000000000001000000FAA1C047FAA0C0F357583100E0D5CDB52FCDB700E1
:20016400D17AEAA0C0FE112007AFCB3B17EAA1C0AFE042E043E041E04A3E07E04B11C80110
:200184002180FF0E0CF7CD80FF019C00CD972F3EE4E047E0483E1BE0493EC0E040AFE00F7F
:2001A4003E01E0FFE090AF21A3C02277E026CD9D31FBCDC713760018FCF3F802AFE00F7E0B
:1001C400FBE0FFC9F092B7C8E0463E283D20FDC9D8
:0101E000C955
:0D319D0001CF0021CE3011B1C0CD5A2FC995
:202F51005F78B1C8730B545D1378B1C8CB38CB1930032A1213040C18062A12132A12130D9B
:202F710020F70520F4C921A5C02A5F5623B2C87BB920F67AB820F2545D1B1B2A1247132A10
:202F91001213B0C818F521A5C02AB628032318F9783271C9F040E680C8AFE0917600F09158
:202FB100B728F9C9F040E680C8F044FE9230FAF044FE9138FAF040E67FE040C9C5F8042AB5
:122FD1004F46CD772FC1C9C5F8042A4F46CD972FC1C9BF
:20020000D55FF8063A2B96301C237E933017237ECD3F2FF8057E1E00814F7B8847E1E5098C
:200220004D440A1801AF3333E1E803E9E8F2F80C7323722B2B77F800AF220E007922AF5F0D
:20024000223600F8137E3D3E012801AFF80477F8137ED6023E012801AFF80577F8137ED6AB
:20026000033E012801AFF80677F81146783DF80722783C77F8137EB72821F81246783DF819
:200280000922783C77F8047EB7C21103237EB7C28403237EB7C2F203C36204F80A36015699
:2002A000F8123A92C5D5F5333A575ED5F8122A5E2356CD0002D1C15FB7280B3D2808F80ABE
:2002C0007EF80077180914F80A723E049230D1F8127EF8009647C5D5C533F80C7EF533F822
:2002E000167EF533F8122A5E2356CD0002D1C1F80277C5D5C533F80D7EF533F8167EF53374
:20030000F8122A5E2356CD0002D1C1F80377C36204060150F8112A82C5D566E533F533F892
:20032000167EF533F8122A5E2356CD0002D1C15FB728083D2805F80070180714423E049234
:2003400030D2F8117EF8008647C5D5F80D7EF533C533F8167EF533F8122A5E2356CD000284
:20036000D1C1F80277C5D5F80E7EF533C533F8167EF533F8122A5E2356CD0002D1C1F80321
:2003800077C36204060150F8123A82C5D5F5333A575ED5F8122A5E2356CD0002D1C15FB798
:2003A00028083D2805F80070180714423E049230D6F8127EF8008647C5D5C533F80D7EF595
:2003C00033F8167EF533F8122A5E2356CD0002D1C1F80277C5D5C533F80C7EF533F8167E91
:2003E000F533F8122A5E2356CD0002D1C1F803771870060150F8112A92C5D566E533F53313
:20040000F8167EF533F8122A5E2356CD0002D1C15FB728083D2805F80070180714423E04ED
:200420009230D2F8117EF8009647C5D5F80E7EF533C533F8167EF533F8122A5E2356CD0002
:2004400002D1C1F80277C5D5F80D7EF533C533F8167EF533F8122A5E2356CD0002D1C1F842
:2004600003777BD6032006F8137EB728217BD6042006F8047EB720167BD6052006F8057E26
:20048000B7200B7BD606200AF8067EB728041E0118021E00F8027EB728067E3D28020E01F2
:2004A000F8037EB728087E3D2804F8013601F8007E3D2813F8007ED602CA8705F8007ED6E7
:2004C00003CA4706C30107CB43285ECB41281311E72CD5210609E5210403E5CD6030E806F6
:2004E000181111452CD5210609E5210403E5CD6030E806F801CB462818111D2DD521060965
:20050000E53E03F5333E0AF533CD6030E806C30107117B2CD5210609E53E03F5333E0AF5BF
:2005200033CD6030E806C30107CB41281311B12CD5210609E5210403E5CD6030E8061811D2
:2005400011D92BD5210609E5210403E5CD6030E806F801CB46281811B12CD5210609E53EE4
:2005600003F5333E0AF533CD6030E806C30107110F2CD5210609E53E03F5333E0AF533CDEE
:200580006030E806C30107CB43285ECB41281311772DD5210409E5210603E5CD6030E80640
:2005A000181111072ED5210409E5210603E5CD6030E806F801CB462818119B2DD521040964
:2005C000E53E03F5333E0AF533CD6030E806C30107112B2ED5210409E53E03F5333E0AF54F
:2005E00033CD6030E806C30107CB41281311532DD5210409E5210603E5CD6030E80618116F
:2006000011BF2DD5210409E5210603E5CD6030E806F801CB46281811532DD5210409E53E9A
:2006200003F5333E0AF533CD6030E806C3010711E32DD5210409E53E03F5333E0AF533CD5A
:200640006030E806C30107CB43285CCB412813116A2ED5210309E5210703E5CD6030E8068D
:20066000181111A02ED5210309E5210703E5CD6030E806F801CB46281701BB2EC52103090B
:20068000E53E03F5333E0AF533CD6030E806187101F12EC5210309E53E03F5333E0AF533F8
:2006A000CD6030E806185ACB412813114F2ED5210309E5210703E5CD6030E80618111185A7
:2006C0002ED5210309E5210703E5CD6030E806F801CB462817014F2EC5210309E53E03F5D6
:2006E000333E0AF533CD6030E806181501D62EC5210309E53E03F5333E0AF533CD6030E8E5
:2007000006E80EE1E804E9E8F1F80C7323722B2B77F800AF22AF22AF22AF22AF2277F813E6
:200720007EF80A77F8127EF80E77F8147EB72819F8147E3D286CF8147ED602CAE007F814C1
:200740007ED603CA1E08C35A08F8093600F8097EF80522079F77E5210200395D54E1F8056B
:200760002A666F19E57DF80977E17CF80822233A96F80E4605F533C533F8137EF533F80EED
:200780002A5E2356CD00024FF8072A666F71F809347EEE80D68438B5F8043E06223603C305
:2007A0005A080E00795F079F5721000039195D54F80A4605F80E7E81C5D5C533F533F817B5
:2007C0007EF533F8122A5E2356CD0002D1C1120C79EE80D68438CDF8043E03223604187A78
:2007E0000E00795F079F5721000039195D54F80A7E81F80E4604C5D5F533C533F8177EF565
:2008000033F8122A5E2356CD0002D1C1120C79EE80D68438CDF8043E04223605183C0E00D8
:20082000795F079F5721000039195D54F80A4604F80E7E91C5D5C533F533F8177EF533F8F7
:20084000122A5E2356CD0002D1C1120C79EE80D68438CDF8043E05223606F80E3603F80EDE
:200860007EF80A77F80E35F80A7EB7CA180AF80E7E4F079F472100003909E57DF80877E146
:200880007CF807322A5F2A571A77F80E7ED6023E012801AFF80977F80E7E3D3E012801AF4D
:2008A000F80A322B7EB7CA53097E3DCA5309F8097EB7282CF8047EF80896201311EF2AD5D1
:2008C000210109E5210603E5CD6030E806181111DD2AD5210109E5210603E5CD6030E8062E
:2008E000F80A7EB72831F8062A5F561A47F8047E90201311F329D5210209E5210403E5CD00
:200900006030E806181111E129D5210209E5210403E5CD6030E806F80E7EB7C25E08F80676
:200920002A5F561A47F8047E902014112429D5210309E5210103E5CD6030E806C35E081165
:200940000929D5210309E5210103E5CD6030E806C35E08F8087EB7C25E08F80E7E3C4F078D
:200960009F4721000039095D541AF80877B7CA5E083DCA5E08F8097EB72830F8057EF8088F
:20098000962015D501372BC5210609E5210103E5CD6030E806D11813D501012BC521060932
:2009A000E5210103E5CD6030E806D1F80A7EB728301A4FF8057E912015D501562AC52105B2
:2009C00009E5210103E5CD6030E806D11813D501292AC5210509E5210103E5CD6030E80681
:2009E000D1F80E7EB7C25E081A47F8057E902014119029D5210309E5210103E5CD6030E823
:200A000006C35E08117529D5210309E5210103E5CD6030E806C35E08E80FE1E804E9E8F10D
:200A2000F80C7323722B2B77F800AF22AF22AF22AF22AF2277F8137EF80A77F8127EF80EC9
:200A400077F8147EB72819F8147E3D286CF8147ED602CAF70AF8147ED603CA350BC3710B69
:200A6000F8093600F8097EF80522079F77E5210200395D54E1F8052A666F19E57DF80977C2
:200A8000E17CF80822233A96F80E4604F533C533F8137EF533F80E2A5E2356CD00024FF8A6
:200AA000072A666F71F809347EEE80D68438B5F8043E04223603C3710B0E00795F079F579C
:200AC00021000039195D54F80A4604F80E7E81C5D5C533F533F8177EF533F8122A5E235627
:200AE000CD0002D1C1120C79EE80D68438CDF8043E05223604187A0E00795F079F57210000
:200B00000039195D54F80A7E81F80E4605C5D5F533C533F8177EF533F8122A5E2356CD0039
:200B200002D1C1120C79EE80D68438CDF8043E06223605183C0E00795F079F57210000398F
:200B4000195D54F80A4605F80E7E91C5D5C533F533F8177EF533F8122A5E2356CD0002D14F
:200B6000C1120C79EE80D68438CDF8043E03223606F80E3603F80E7EF80A77F80E35F80A3C
:200B80007EB7CA2F0DF80E7E4F079F472100003909E57DF80877E17CF807322A5F2A571A6C
:200BA00077F80E7ED6023E012801AFF80977F80E7E3D3E012801AFF80A322B7EB7CA6A0C27
:200BC0007E3DCA6A0CF8097EB7282CF8047EF80896201311F82AD5210109E5210D03E5CD52
:200BE0006030E806181111E62AD5210109E5210D03E5CD6030E806F80A7EB72831F8062A2F
:200C00005F561A47F8047E90201311172AD5210209E5210E03E5CD6030E806181111052A7E
:200C2000D5210209E5210E03E5CD6030E806F80E7EB7C2750BF8062A5F561A47F8047E90A7
:200C40002014115A29D5210309E5211003E5CD6030E806C3750B113F29D5210309E52110AD
:200C600003E5CD6030E806C3750BF8087EB7C2750BF80E7E3C4F079F4721000039095D5477
:200C80001AF80877B7CA750B3DCA750BF8097EB72830F8057EF808962015D501A32BC521DD
:200CA0000609E5210D03E5CD6030E806D11813D5016D2BC5210609E5210D03E5CD6030E840
:200CC00006D1F80A7EB728301A4FF8057E912015D501832AC5210509E5210E03E5CD603034
:200CE000E806D11813D501B02AC5210509E5210E03E5CD6030E806D1F80E7EB7C2750B1AB7
:200D000047F8057E90201411C629D5210309E5211003E5CD6030E806C3750B11AB29D521E4
:150D20000309E5211003E5CD6030E806C3750BE80FE1E804E979
:200D3500E8FBF8037323722B2B77112D14D521004BE5CDE82FE804116927D5210019E5CD41
:200D5500F02FE804060078F802963036C55E78CD3F2FF802792270C10E0079F80796301FF8
:200D7500591600E1E5195D54F8032A666F195D541A3D200821B1C07121B2C0700C18DB0413
:200D950018C4F040F601E040E805E133E94A4A4A4A4A4A4A4A4A4A4A4A4A4A4A4A4A4A4AB3
:200DB5004A4A4A4A4A4A4A4A4A4A4A4A4A4A4A4A4A4A4A4A4A4A4A4A4A4A4A4A4A4A4A4ADE
:200DD5004A4A4A4A4A4A4A4A4A000000000000000000000000000000000000000000000064
:200DF5000000000000000000000000000000000000000000000000000000000000000000DE
:200E15000000000000000000000000000000000000000000000000000000000000000000BD
:200E350000000000000000000000000000000000000000000000000000000000000000009D
:200E550000000000000000000000000000000000000000000000000000000000000000007D
:200E750000000000000000000000000000000000000000000000000000000000000000005D
:200E950000000000000000000000000000000000000000000000000000000000000000003D
:200EB500000000000000060006000000000000000000000000050005000000000000000007
:200ED5000000000004000400000000000000000000000003000300000000000000000000EF
:200EF5000000020002030405060000000000000200000100000000000000000000000000C4
:200F15000200020304050600000000000000000000000000000000000000000000000002A4
:200F350000000000000000000000000000000200000000000000000000000000000000009A
:200F550000000000000000000000000000000000000000000000000000000000000000007C
:200F75000000000000000000000000000000000000004FD521A20DE521140DE5AF0FF5CDDC
:200F95006030E806D1C5D5FA7CC167FAB2C06FE5FAB1C0F533F8097EF53379CD0707D1C1D5
:200FB500C5D5FA7CC167FAB2C06FE5FAB1C0F533F8097EF53379CD1E0AD1C1FA7CC167FA52
:200FD500B2C06FE5FAB1C0F533F8057EF53379CD2C02E133E9E133E92100C03E14223650B7
:200FF5002104C03E1C2236502108C03E1C223658210CC03E142236582110C03E1422364038
:201015002114C03E14223668C92103C036002107C03600210BC03600210FC03600FA7CC134
:20103500B72817FA7CC13D2831FA7CC1D602284AFA7CC1D6032863C3CD102102C0360121E1
:2010550006C03602210AC03601210EC03602210BC03660210FC03660185E2102C036032179
:2010750006C03603210AC03604210EC03604210BC036402107C03640183E2102C0360621B8
:2010950006C03605210AC03606210EC036052107C03660210BC03660181E2102C036072172
:2010B50006C03608210AC03608210EC03607210BC03620210FC03620FA7CC1B72815FA7C99
:2010D500C13D281AFA7CC1D602281EFA7CC1D6032822C92112C0360C2116C0360AC92112DB
:2010F500C036092116C0360BC92112C0360A2116C0360CC92112C0360B2116C03609C9FA79
:201115007DC1EA7EC1CD3030217DC177CB4E2820FA7EC1CB4F2019217CC1357E3C200521D0
:201135007CC136033E0FF5333E0F11A60ECD870FFA7DC10F3020FA7EC10F381A217CC13477
:201155007ED6042005217CC136003E0FF5333E0F11A60ECD870FFA7DC1CB57CAA112FA7E30
:20117500C1CB57C2A11221B2C05EFA7CC1B7281A21B1C04EFA7CC13D2852FA7CC1FE02CA12
:201195002312D603CA6312C3A1124305C533FAB1C0672E0FE53E0F11A60ECD0002B728196A
:2011B500FAB2C03DF533FAB1C0672E0FE53E0F11A60ECD00023DC2A11221B2C0353E0FF5B8
:2011D500333E0F11A60ECD870FC3A1120CFAB2C0F533612E0FE53E0F11A60ECD0002B728F9
:2011F5001AFAB1C03C21B2C066E533672E0FE53E0F11A60ECD00023DC2A11221B1C0343EE8
:201215000FF5333E0F11A60ECD870FC3A1124304C533FAB1C0672E0FE53E0F11A60ECD0085
:2012350002B72818FAB2C03CF533FAB1C0672E0FE53E0F11A60ECD00023D205021B2C03487
:201255003E0FF5333E0F11A60ECD870F183E0DFAB2C0F533612E0FE53E0F11A60ECD000234
:20127500B72819FAB1C03D21B2C066E533672E0FE53E0F11A60ECD00023D201021B1C0350A
:201295003E0FF5333E0F11A60ECD870FFA7DC1CB5FC8FA7EC1CB5FC021B2C05EFA7CC1B723
:2012B500281821B1C04EFA7CC13D284CFA7CC1FE02CA4B13D603CA8913C94304C533FAB1C0
:2012D500C0672E0FE53E0F11A60ECD0002B72817FAB2C03CF533FAB1C0672E0FE53E0F11B7
:2012F500A60ECD00023DC021B2C0343E0FF5333E0F11A60ECD870FC90DFAB2C0F533612EAF
:201315000FE53E0F11A60ECD0002B72818FAB1C03D21B2C066E533672E0FE53E0F11A60E98
:20133500CD00023DC021B1C0353E0FF5333E0F11A60ECD870FC94305C533FAB1C0672E0F03
:20135500E53E0F11A60ECD0002B72817FAB2C03DF533FAB1C0672E0FE53E0F11A60ECD0018
:20137500023DC021B2C0353E0FF5333E0F11A60ECD870FC90CFAB2C0F533612E0FE53E0F6E
:2013950011A60ECD0002B72818FAB1C03C21B2C066E533672E0FE53E0F11A60ECD00023D4E
:2013B500C021B1C0343E0FF5333E0F11A60ECD870FC93E0FF5333E0F11A60ECD350DCDED8F
:2013D5000F3E0FF5333E0F11A60ECD870F116927D521001AE5CDF02FE8043E25110814CD34
:2013F500531DF040F602E040CD1411CD1E10CDA52F18F5497427732064616E6765726F75B9
:181415007320746F20676F20616C6F6E652074616B6520746869730087
:2030CE000000010000000000000000000000000000000000000000000000000000000000E1
:2030EE000000000000000000000000000000000000000000000000000000000000000000C2
:20310E000000000000000000000000000000000000000000000000000000000000000000A1
:20312E00000000000000000000000000000000000000000000000000000000000000000081
:20314E00000000000000000000000000000000000000000000000000000000000000000061
:20316E00000000000000000000000000000000000000000000000000000000000000000041
:0E318E00000000000000000000000000000033
:20142D0000000000000000000000000000000000C0C030300C0C03030000000000000000A1
:20144D000000000000000000C0C030300C0C0303000000000000000003030C0C3030C0C083
:20146D0003030C0C3030C0C00000000000000000C0C030300C0C030301010101010101015B
:20148D0003030C0C3030C0C080808080808080800101010101010101010101010101010131
:2014AD00C0C0B0B08C8C838380838083808380830000000000000000C0C030F00CCC03C3D7
:2014CD0080808080808080808080808080808080000000000000000003030C0F3033C0C3F8
:2014ED0003030D0D3131C1C101C101C101C101C180838083808380838083808380838083BB
:20150D0001C101C101C101C101C101C101C101C10C0C0B0B0809080908090809080908091A
:20152D0001010101C1C131B111911191119111918080808083838C8D88898889888988894B
:20154D003030D0D01090109010901090109010900809080908090809080908090809080936
:20156D001191119111911191119111911191119188898889888988898889888988898889C6
:20158D0010901090109010901090109010901090010101010101010103030C0C3030C0C038
:2015AD00119111911191119113931C9C30B0C0C08889888988898889C8C938390C0D030373
:2015CD008080808080808080C0C030300C0C03030B0B0C0C3030C0C00000000000000000F2
:2015ED00D0D030300C0C03030000000000000000808380838083808383838C8CB0B0C0C0B6
:20160D0003C30CCC30F0C0C00000000000000000C0C330330C0F0303000000000000000078
:20162D0001C101C101C101C1C1C131310D0D03030000000000000000FFFF00000000000093
:20164D000000000000000000FFFF0101010101010000000000000000FFFF8080808080807B
:20166D00FFFF01C101C101C101C101C101C101C1FFFF8083808380838083808380838083FE
:20168D00000000000000FFFF0000000000000000010101010101FFFF00000000000000003B
:2016AD0001C101C101C1FFFF0000000000000000808080808080FFFF0000000000000000DB
:2016CD00808380838083FFFF000000000000000000000000FFFF80838083808380838083E9
:2016ED0000000000FFFF01C101C101C101C101C10101010121213939253D253D253D253DD5
:20170D008080808084849C9CA4BCA4BCA4BCA4BC253D253D253D253D253D253D253D253DEC
:20172D00A4BCA4BCA4BCA4BCA4BCA4BCA4BCA4BC273F2C3C3030C0C00000000000000000EE
:20174D00E4FC343C0C0C03030000000000000000FFFF000000000000000000000000000010
:20176D00FFFF0101010101010101010101010101FFFF0000000000000000FFFF8199819920
:20178D00FFFF8080808080808080808080808080819981998199819981998199819981996E
:2017AD000000000000000000000000000000FFFF0101010101010101010101010101FFFF12
:2017CD008199819981998199819981998199FFFF8080808080808080808080808080FFFF4A
:2017ED000000000000000000FFFF0007000700070000000000000000FFFF00E000E000E02B
:20180D000007000700070007000700070007000700E000E000E000E000E000E000E000E083
:20182D00000700070007FFFF000000000000000000E000E000E0FFFF0000000000000000EA
:20184D000000000000000000FFFF8083808380830000000000000000FFFF01C101C101C130
:20186D000000FFFF8083808380838083808380830000FFFF01C101C101C101C101C101C1C1
:20188D001011101110111011101110111011FFFF0888088808880888088808880888FFFF68
:2018AD0000000000000000001F1F1011101110110000000000000000F8F8088808880888DA
:2018CD00FFFFFFFFFFFFFFFFFFFFFFFFFFFFFFFF000000000000000000000000000000000B
:2018ED00C0C030300C0C030300000000000000000000000000000000C0C030300C0C0303DF
:20190D00000000000000000003030C0C3030C0C003030C0C3030C0C00000000000000000BE
:20192D00C0C030300C0C0303010101010101010103030C0C3030C0C0808080808080808096
:20194D0001010101010101010101010101010101C0C0B0B08C8C8383808380838083808360
:20196D000000000000000000C0C070F00CCC03C380808080808080808080808080808080DC
:20198D00000000000000000003030C0F3033C0C303030D0D3131C1C101C101C101C101C127
:2019AD008083808380838083808380838083808301C101C101C101C101C101C101C101C1F2
:2019CD00010101010101010103030C0C3030C0C08080808080808080C0C030300C0C0303F6
:2019ED00808380838083808383838C8CB0B0C0C003C30CCC30F0C0C0000000000000000092
:201A0D00C0C330330C0F0303000000000000000001C101C101C101C1C1C131310D0D0303A6
:201A2D00FFFF0000000000000000000000000000FFFF01010101010101010101010101018F
:201A4D00FFFF80808080808080808080808080800000000000000000FFFF01C101C101C137
:201A6D000000000000000000FFFF8083808380830000000000000000000000000000FFFF54
:201A8D000101010101010101010101010101FFFF01C101C101C101C101C101C101C1FFFFE1
:201AAD008080808080808080808080808080FFFF8083808380838083808380838083FFFF08
:201ACD0000000000000000000C0C0B0B08090809010101010101010101010101C1C131B139
:201AED0080808080808080808080808083838C8D00000000000000003030D0D0109010907A
:201B0D00080908090809080908090809080908091191119111911191119111911191119120
:201B2D00888988898889888988898889888988891090109010901090109010901090109010
:201B4D0008090809080908090B0B0C0C3030C0C013931C9C30B0C0C0000000000000000068
:201B6D00C8C938390C0D030300000000000000001090109010901090D0D030300C0C030399
:201B8D00FFFF00000000000000000000FFFF8083FFFF00000000000000000000FFFF01C17B
:201BAD00C0C030300C0C0303010101012121393903030C0C3030C0C08080808084849C9C24
:201BCD00253D253D253D253D253D253D253D253DA4BCA4BCA4BCA4BCA4BCA4BCA4BCA4BCE8
:201BED00253D253D253D253D273F2C3C3030C0C0A4BCA4BCA4BCA4BCE4FC343C0C0C0303B4
:201C0D00FFFF00000000000000000000FFFF819981998199819981998199819981998199D1
:201C2D008199819981998199819981998199FFFF0000000000000000FFFF000000000000E5
:201C4D00000000000000FFFF00000000000000000000000000000000FFFF8080808080807B
:201C6D000000000000000000FFFF0007000700070000000000000000FFFF00E000E000E0A6
:201C8D000000000000000000FFFF01010101010100070007000700070007000700070007FB
:201CAD0000E000E000E000E000E000E000E000E0808080808080FFFF000000000000000019
:201CCD00000700070007FFFF000000000000000000E000E000E0FFFF000000000000000046
:201CED00010101010101FFFF0000000000000000808380838083FFFF0000000000000000CC
:201D0D0001C101C101C1FFFF0000000000000000FFFF0000000000000000FFFF8083808370
:201D2D00FFFF0000000000000000FFFF01C101C15F01A91D16007BC6E06F7ACEFF6729294A
:201D4D002929094D44C94FD621302806007891D0682600196EC5D57DCD3D1D6960D1C1781E
:201D6D00C6E0D5E52601E533F533CDE82FE804D10418DA0E006926001946C5D578CD3D1DC3
:201D8D006960D1C179C6E0D5E52601E533F533CDE82FE804D10C79D62038DAC9FFFFFFFFA8
:201DAD00FFFFFFFFFFFFFFFFFFFFFFFFE7E7E7E7E7E7E7E7E7E7FFFFE7E7FFFF99999999EE
:201DCD00BBBBFFFFFFFFFFFFFFFFFFFFFFFFDBDB8181DBDBDBDB8181DBDBFFFFEBEBC1C15A
:201DED00AAAAC3C3E1E1AAAAC1C1EBEB9D9D9999F3F3E7E7CFCF9999B9B9FFFF87873333BA
:201E0D009E9E3131333333338787FFFFE7E7E7E7EFEFFFFFFFFFFFFFFFFFFFFFF7F7EFEF03
:201E2D00CFCFCFCFCFCFCFCFEFEFF7F7DFDFEFEFE7E7E7E7E7E7E7E7EFEFDFDFFFFFABAB8D
:201E4D00C7C70101C7C7ABABFFFFFFFFFFFFE7E7E7E78181E7E7E7E7FFFFFFFFFFFFFFFFD5
:201E6D00FFFFFFFFFFFFCFCFCFCFDFDFFFFFFFFFFFFFC3C3FFFFFFFFFFFFFFFFFFFFFFFFED
:201E8D00FFFFFFFFFFFFE7E7E7E7FFFFFDFDF9F9F3F3E7E7CFCF9F9F3F3FFFFFC3C39999F1
:201EAD009191898999999999C3C3FFFFE7E7C7C7E7E7E7E7E7E7E7E7E7E7FFFFC3C39999E1
:201ECD00F1F1E3E3C7C78F8F8181FFFF8181F3F3E7E7C3C3F9F9B9B9C3C3FFFFF3F3E3E3D1
:201EED00D3D3B3B38181F3F3F3F3FFFF81819F9F8383F9F9F9F9B9B9C3C3FFFFE3E3DFDF59
:201F0D009F9F838399999999C3C3FFFF8181F9F9F1F1E3E3E7E7E7E7E7E7FFFFC3C39999CC
:201F2D009999C3C399999999C3C3FFFFC3C399999999C1C1F9F9F3F3C7C7FFFFFFFFE7E758
:201F4D00E7E7FFFFFFFFE7E7E7E7FFFFFFFFE7E7E7E7FFFFE7E7E7E7EFEFFFFFF9F9F3F328
:201F6D00E7E7CFCFE7E7F3F3F9F9FFFFFFFFFFFFC3C3FFFFFFFFC3C3FFFFFFFF9F9FCFCF68
:201F8D00E7E7F3F3E7E7CFCF9F9FFFFFC3C3B9B9F9F9F3F3E7E7E7E7FFFFE7E7C3C39999E8
:201FAD009191959591919F9FC3C3FFFFC3C3999999998181999999999999FFFF838399992C
:201FCD0099998383999999998383FFFFC3C39D9D9F9F9F9F9F9F9D9DC3C3FFFF83839999E4
:201FED0099999999999999998383FFFF81819F9F9F9F83839F9F9F9F8181FFFF81819F9FC8
:20200D009F9F83839F9F9F9F9F9FFFFFC3C39D9D9F9F919199999999C1C1FFFF999999994F
:20202D0099998181999999999999FFFFE7E7E7E7E7E7E7E7E7E7E7E7E7E7FFFFF9F9F9F947
:20204D00F9F9F9F9F9F9B9B9C3C3FFFF9999939387878F8F878793939999FFFF9F9F9F9F43
:20206D009F9F9F9F9F9F9F9F8383FFFF0303292929292929292939393939FFFF9D9D8D8DD3
:20208D008585A1A1B1B1B9B9BDBDFFFFC3C399999999999999999999C3C3FFFF838399995F
:2020AD00999983839F9F9F9F9F9FFFFFC3C399999999999999999999C3C3F9F983839999F3
:2020CD0099998383999999999999FFFFC3C39D9D8F8FC3C3F1F1B9B9C3C3FFFF8181E7E71B
:2020ED00E7E7E7E7E7E7E7E7E7E7FFFF999999999999999999999999C3C3FFFF99999999BB
:20210D009999999999999B9B8787FFFF3939393939392929292929290303FFFF9999999926
:20212D009999C3C3999999999999FFFF999999999999C3C3E7E7E7E7E7E7FFFF8181F1F1DE
:20214D00E3E3C7C78F8F9F9F8181FFFFE1E1E7E7E7E7E7E7E7E7E7E7E1E1FFFFBFBF9F9F7E
:20216D00CFCFE7E7F3F3F9F9FDFDFFFF8787E7E7E7E7E7E7E7E7E7E78787FFFFEFEFC7C78A
:20218D009393FFFFFFFFFFFFFFFFFFFFFFFFFFFFFFFFFFFFFFFFFFFF8181FFFFFFFF3F3FA6
:2021AD003F3F9F9FFFFFFFFFFFFFFFFFFFFFC3C3B9B9C1C199999999C1C1FFFF9F9F8383BE
:2021CD0099999999999999998383FFFFFFFFC3C39D9D9F9F9F9F9D9DC3C3FFFFF9F9C1C1BA
:2021ED009999999999999999C1C1FFFFFFFFC3C3999981819F9F9D9DC3C3FFFFE1E1CFCF76
:20220D008383CFCFCFCFCFCFCFCFFFFFFFFFC1C1999999999999C1C1B9B9C3C39F9F838361
:20222D0099999999999999999999FFFFE7E7FFFFE7E7E7E7E7E7E7E7E7E7FFFFFFFFF7F7DD
:20224D00E7E7E7E7E7E7E7E7A7A7CFCF9F9F9B9B97978F8F878793939999FFFFE7E7E7E78D
:20226D00E7E7E7E7E7E7E7E7F3F3FFFFFFFF030329292929292929293939FFFFFFFF838375
:20228D0099999999999999999999FFFFFFFFC3C39999999999999999C3C3FFFFFFFF838365
:2022AD0099999999999983839F9F9F9FFFFFC1C19999999999999999C1C1F9F9FFFF939319
:2022CD008F8F9F9F9F9F9F9F9F9FFFFFFFFFC3C38D8DC7C7E3E3B1B1C3C3FFFFE7E7C3C3B1
:2022ED00E7E7E7E7E7E7E7E7F3F3FFFFFFFF99999999999999999999C1C1FFFFFFFF99990D
:20230D009999999999999B9B8787FFFFFFFF393939392929292929290303FFFFFFFF9999CC
:20232D009999C3C3999999999999FFFFFFFF999999999999D9D9E1E1B9B9C3C3FFFF818144
:20234D00F1F1E3E3C7C78F8F8181FFFFF1F1E7E7E7E7CFCFE7E7E7E7F1F1FFFFE7E7E7E7E8
:20236D00E7E7E7E7E7E7E7E7E7E7E7E78F8FE7E7E7E7F3F3E7E7E7E78F8FFFFFFFFF9F9FE8
:20238D000D0D6161F3F3FFFFFFFFFFFFEFEFEFEFD7D7D7D7BBBBBBBB7D7D0101010102036D
:2023AD0004070407020301011F1F101F080F080F0407040702030203010101018080C04034
:2023CD00E02060A040C08080F8F8F808F010F010E020E020C040C0408080808001010203F9
:2023ED000407040702031D1D131F080F080F04070407040702030203010101018080C040EC
:20240D00E02060A040C08080C0C0F838F010F010E020E020C040C0408080808001010203F8
:20242D000407040702030D0D0B0F0407040704070203020302030203010101018080C04007
:20244D00E02060A040C080800000C0C0E020E020C040C040C040C0408080808001010203E8
:20246D00040704070203070705070203020302030203020302030101010101018080C040F6
:20248D00E02060A040C080800000C0C0C040C040C040C040808080808080808001010203A8
:2024AD00040704070203010100000303030203020302030201010101010101018080C040D0
:2024CD00E02060A040C0E0E0A0E040C040C040C040C040C040C080808080808001010203A8
:2024ED00040704070203010100000303070407040302030203020302010101018080C0407E
:20250D00E02060A040C0B0B0D0F020E020E020E040C040C040C040C0808080800101020387
:20252D00040704070203010103031F1C0F080F080704070403020302010101018080C040DE
:20254D00E02060A040C0B8B8C8F810F010F020E020E020E040C040C0808080800101020337
:20256D0004070407020301011F1F1F100F080F080704070403020302010101018080C04072
:20258D00E02060A040C08080F8F808F810F010F020E020E040C040C0808080800101020337
:2025AD000407040702031D1D1F130F080F0807040704070403020302010101018080C0402A
:2025CD00E02060A040C08080C0C038F810F010F020E020E040C040C0808080800101020337
:2025ED000407040702030D0D0F0B0704070407040302030203020302010101018080C04046
:20260D00E02060A040C080800000C0C020E020E040C040C040C040C0808080800101020326
:20262D00040704070203070707050302030203020302030203020101010101018080C04034
:20264D00E02060A040C080800000C0C040C040C040C040C0808080808080808001010203E6
:20266D00040704070203010100000303020302030203020301010101010101018080C0400E
:20268D00E02060A040C0E0E0E0A0C040C040C040C040C040C04080808080808001010203E6
:2026AD00040704070203010100000303040704070203020302030203010101018080C040BC
:2026CD00E02060A040C0B0B0F0D0E020E020E020C040C040C040C0408080808001010203C6
:2026ED00040704070203010103031C1F080F080F0407040702030203010101018080C0401D
:20270D00E02060A040C0B8B8F8C8F010F010E020E020E020C040C040808080800101020375
:20272D0004070407020301011F1F101F080F080F0407040702030203010101018080C040B0
:20274D00E02060A040C08080F8F8F808F010F010E020E020C040C04080808080000000007C
:20276D00000000000000000000000000FC007800300038003C003E0037003300310030002B
:20278D0030003000300030007800FC001F001F001C001800180018001C001F00FE00FE001F
:2027AD0000000000000000000000FC00FC00F80000000000000000000000E00007000F0026
:2027CD00180030003000300018000F000000400040006000600061006100610063006300F4
:2027ED006300360036003E001C00000042004200620052004A004600420042007E00400099
:20280D0040007C004000400040007E003C0040004000200018000400040078008200820039
:20282D008200920054005400540038000003030F0F1F1F3F3F7F3F7F7FFF7FFF0003020D18
:20284D000D131D233B473B47778F778F0003030C0F101F203F403F407F807F800003020F7B
:20286D000D1E1D3E3B7C3B7C77F877F800001F1F3F207F40FFFFFF80FF80FFFF0000FFFF25
:20288D00FF00FF00FFFFFF00FF00FFFF0000FFFFFF03FF05FFF9FE12FC14F8F80000000027
:2028AD000000000000003F3F407F80FF00000000000000000000FFFF00FF00FF0000000053
:2028CD00000000000000FFFF03FF07FDFFFFFF80FF80FF80FF80FF80FF80FFFFFFFFFF00F4
:2028ED00FF00FF00FF00FF00FF00FFFFFFF9FF11FF11FF11FE12FC14F818F0F00102000097
:20290D0000050000070000070000070000070000070000170304000102000809050D0E0729
:20292D000D0E070D0E070D0E070D0E070D0E171D1E000003040600000A00000A00000A006A
:20294D00000A00000A00001A0000000102000304060B0C0A0D0E0A0D0E0A0D0E0A0D0E0A77
:20296D000D0E1A0D0E001F20000000212122000007000007000007000007000007262627C1
:20298D000000000000002121220000072400070E00070E00070E00072826270000000000E0
:2029AD00002321210A00000A00000A00000A00000A00002926260000000000002321210A8F
:2029CD0000000A00250A000D0A000D0A000D29262A000000000002000005000700070007E1
:2029ED000017040000000000020000050F101314131413181B0000000000000306000A00E2
:202A0D000A000A001A00000100000000000306001112151615161916001C000000000000AD
:202A2D0000000000000021212121220000000007000000000700000000072626262627000F
:202A4D00000000000000000000000000000000000000002121212122002B2C0007000D0E4A
:202A6D000007000D0E0007262A28262700000000000000000000000000000000000000005B
:202A8D0023212121210A002B2C000A000D0E000A000D0E0029262A28260000000000000010
:202AAD000000000000000000000000000023212121210A000000000A000000000A00000044
:202ACD00002926262626000000000000000000000000020707070400000000030A0A0A01EB
:202AED0000000000022D2F2F3100000000032E303032000000000000000000000000000048
:202B0D0000000000000033333333333400000000000738383838383900000000000000001D
:202B2D000000000000000000000000000000000000000000000000000000000033333333BC
:202B4D003534000000003707383838383A390000000000000000000000000000000000006E
:202B6D000000000000000000000000000000000000003633333333330A00000000003B3896
:202B8D00383838380000000000000000000000000000000000000000000000000000000048
:202BAD0000000000000000003635333333330A37000000003B3A383838380000000000003B
:202BCD000000000000000000000000000000000000002321212121210A00000000000A000C
:202BED00000000000A00000000000A00000000000A000000000029262626262600000000C3
:202C0D000000000000000000212121212122000000000007000000000007000000000007CB
:202C2D00000000000007000000000007262626262627000000000000000000000000232150
:202C4D00212121210A000000233C0A0000000A3E0A0000000A3E0A0000000A3E0A0000007A
:202C6D000A3E2926262629400000000000000000000000002121212121223D2200000007CE
:202C8D003F07000000073F07000000073F07000000073F07000000074127262626270000F2
:202CAD00000000000000000000002121212121210000000000000000000000000000000041
:202CCD00000000000000000000000000000026262626262600000000000000000000000003
:202CED0021212121212100000000233C000000000A3E000000000A3E000000000A3E0000CA
:202D0D0000000A3E2626262629400000000000000000000000002121212121213D22000038
:202D2D0000003F07000000003F07000000003F07000000003F07000000004127262626266E
:202D4D00000000000000000000000000000021212121000000000000000000000000262696
:202D6D0026260000000000000000000000000000000021212121000000420000000D000027
:202D8D00000D2626262A0000000000000000000000000000000021212121430000000E00A8
:202DAD0000000E0000002826262600000000000000000000000000000000232121210A00CE
:202DCD0000000A0000000A00000029262626000000000000000000000000000000002121F5
:202DED002122000000070000000700000007262626270000000000000000000000000000D5
:202E0D000000232121210A0000420A00000D0A00000D2926262A0000000000000000000006
:202E2D0000000000000021212122430000070E0000070E00000728262627000000000000F1
:202E4D00000000000000000000000033333300000038383800000000000000000000000024
:202E6D000000000000003333330000483838460000000000000000000000000000000000AE
:202E8D00003633330A00003B38380000000000000000000000000000000000003633330A2E
:202EAD0000483B38460000000000000000000000000000000000003333334900004738386B
:202ECD0000000000000000000000000000000000000033333400000738383900000000009B
:1F2EED000000000000000000000000000033333449000747383900000000000000000024
:202FE300F80656180A1690F040E61028021680C5F8042A5F2A4F2A666FCB337BE60F8257C3
:1D3003007BE6F05FCB5A2802CBA20610F041E60220FA2A12130520F40D20E9C1C9F3
:202F0C004F18024B5F7B179F57AF182A4F179F477B179F5778BA38067B594F7A5047B7CA20
:202F2C00422F2E00061029CB11173001190520F64D44C94FAF576F0608792917300119051B
:052F4C0020F84D44C90E
:20302000F5D5167FCD3030B720F81520F7D1F1C93E20E000F000F000E60F5F3E10E000F0EE
:2030400000F000F000F000F000F000E60FCB37B32F5F3E30E0007BC957CD3030A228FAC9E5
:14306000C5F8042A575EF8093A473A4F3A666FCD7D30C1C99E
:01319C000032
:20307400E5F040E6402809180CE5F040E6082005210098180321009CC5CB33CB037BE603FE
:2030940084473EE0A3824FE1D1D5C5F041E60220FAFA7FC186022379E6E05F793CE61FB350
:1A30B4004F1520E7C1D11DC8D578E6FC5F3E20814F8891E603B347C518D1BA
:00000001FF
